:100000000C947A000C9499000C9499000C9499002B
:100010000C9499000C9499000C9499000C949900FC
:100020000C9499000C9499000C9499000C949900EC
:100030000C9499000C9499000C9499000C949900DC
:100040000C9499000C9499000C9499000C949900CC
:100050000C9499000C9499000C9499000C949900BC
:100060000C9499000C9499000C9499000C949900AC
:100070000C9499000C9499000C9499000C9499009C
:100080000C9499000C9499000C9499000C9499008C
:100090000C9499000C9499000C9499000C9499007C
:1000A0000C9499000C9499000C9499000C9499006C
:1000B0000C9499000C9499000C9499000C9499005C
:1000C0000C9499000C9499000C9499000C9499004C
:1000D0000C9499000C9499000C9499000C9499003C
:1000E0000C9499000C9499000C9499000C9499002C
:1000F0000C94990011241FBECFEFCDBFDFE7DEBF08
:1001000010E4A0E0B0E4E4E0F4E000E00BBF02C0E3
:1001100007900D92A831B107D9F720E4A8E1B0E427
:1001200001C01D92AB31B207E1F70E9425010C948A
:1001300000020C940000E4E8F4E090819860908361
:1001400010921A4032C0F0E0EC5EFF4B9081909329
:10015000440492E09A95F1F7209108042F7130E061
:10016000359527953595279535952795422F4370D9
:10017000909128049073292F30E035952795359577
:1001800027952C70242B90911A40E82FF0E0EE0F69
:10019000FF1FEE0FFF1FE050F04CE90FF11D308103
:1001A000231307C09F5F90931A40E0911A40E430F8
:1001B00050F280911A40843011F481E0089580E07B
:1001C0000895109218400CC00E949B00813019F4D1
:1001D000809118400895809118408F5F8093184057
:1001E00080911840843080F3E4E1F4E080818860FD
:1001F0008083E3E1F4E0808188608083E5E3F4E0DC
:10020000808188608083E4E3F4E08081886080837B
:1002100084E00E949B008130B1F4E4E1F4E080814D
:10022000877F8083E3E1F4E08081877F8083E5E35B
:10023000F4E08081877F8083E4E3F4E08081877F3E
:10024000808384E0089587E00895E1E0F4E0808110
:1002500087708083E1E2F4E080818F7C8083E1E439
:10026000F4E080818FEF8083E1E6F4E080818760B5
:100270008083E1E8F4E080818F608083E1EAF4E04C
:100280008081877F8083E7E1F4E0808188608083DC
:10029000E6E1F4E0808188608083E5E1F4E080813C
:1002A00088608083E4E1F4E0808188608083E3E11A
:1002B000F4E0808188608083E3EBF4E080818860F3
:1002C0008083A4E6B4E088EF8C93E4E8F4E08081D6
:1002D000887F80832FEF84E39CE021508040904012
:1002E000E1F700C000008C9187608C93808187606B
:1002F00080838091A80483FDFCCFE4E6F4E087E0EE
:1003000080838BEF80938404809108048F6190E058
:1003100080959095959587959595879595958795D1
:1003200095958795959587958770809319409081CD
:10033000809589238083809119408430D1F5E4E150
:10034000F4E0808188608083E3E1F4E0808188606C
:100350008083E5E3F4E0808188608083E4E3F4E077
:10036000808188608083809119400E949B00813049
:1003700031F4E4E8F4E080818E7F808305C0E4E816
:10038000F4E080818D7F8083E4E1F4E08081877FE9
:100390008083E3E1F4E08081877F8083E5E3F4E01C
:1003A0008081877F8083E4E3F4E08081877F80839E
:1003B00016C0873029F40E94E100809319400FC0D5
:1003C0000E949B00813031F4E4E8F4E080818E7F6C
:1003D000808305C0E4E8F4E080818D7F8083109203
:1003E0004404E4E8F4E080818460808380911940D3
:1003F00087708095809364048081877F808379CF24
:04040000F894FFCF9E
:100404000F0F0F000000000F000F0F0F000F0F0061
:080414000F0F0F000055AAFFB5
:00000001FF
