S0270000706172616C6C656C5F696E5F706172616C6C656C5F6F75745F7374727563742E7372656313
S11300000C947A000C9484000C9484000C94840066
S11300100C9484000C9484000C9484000C9484004C
S11300200C9484000C9484000C9484000C9484003C
S11300300C9484000C9484000C9484000C9484002C
S11300400C9484000C9484000C9484000C9484001C
S11300500C9484000C9484000C9484000C9484000C
S11300600C9484000C9484000C9484000C948400FC
S11300700C9484000C9484000C9484000C948400EC
S11300800C9484000C9484000C9484000C948400DC
S11300900C9484000C9484000C9484000C948400CC
S11300A00C9484000C9484000C9484000C948400BC
S11300B00C9484000C9484000C9484000C948400AC
S11300C00C9484000C9484000C9484000C9484009C
S11300D00C9484000C9484000C9484000C9484008C
S11300E00C9484000C9484000C9484000C9484007C
S11300F00C94840011241FBECFEFCDBFDFE7DEBF19
S11301000E9486000C94B9000C940000E0E0F4E036
S1130110808183708083E0E4F4E080818C7F80833D
S1130120E0E6F4E080818FEF808380E006C0E2E1C6
S1130130F4E09081986090838F5F8630C0F3E0E4B0
S1130140F4E080898860808B81898860818B8091CC
S1130150080490E09C012C7F90914804892F90E042
S11301608370822B932BE0E6F4E09481892B8483C3
S1090170EECFF894FFCF6E
S9030000FC
