:100000000C947A000C948C000C948C000C948C0052
:100010000C948C000C948C000C948C000C948C0030
:100020000C948C000C948C000C948C000C948C0020
:100030000C948C000C948C000C948C000C948C0010
:100040000C948C000C948C000C948C000C948C0000
:100050000C948C000C948C000C948C000C948C00F0
:100060000C948C000C948C000C948C000C948C00E0
:100070000C948C000C948C000C948C000C948C00D0
:100080000C948C000C948C000C948C000C948C00C0
:100090000C948C000C948C000C948C000C948C00B0
:1000A0000C948C000C948C000C948C000C948C00A0
:1000B0000C948C000C948C000C948C000C948C0090
:1000C0000C948C000C948C000C948C000C948C0080
:1000D0000C948C000C94A3000C948C000C948C0059
:1000E0000C948C000C948C000C948C000C948C0060
:1000F0000C948C0011241FBECFEFCDBFDFE7DEBF15
:1001000020E4A0E0B0E401C01D92A130B207E1F705
:100110000E948E000C94BF000C940000E0E2F4E01A
:1001200081E0818382E08283E0E6F8E082E896E085
:100130008087918783E0878380EC868380E885834E
:1001400078940000FECF1F920F920FB60F921124E9
:100150008F939F9380916408882354F49091600852
:10016000909300408091640885FFFCCF90936208D3
:100170009F918F910F900FBE0F901F901895F8943C
:02018000FFCFAF
:00000001FF
