S012000069635F746573745F76322E7372656320
S11300000C947A000C9499000C9499000C94990027
S11300100C9499000C9499000C9499000C949900F8
S11300200C9499000C9499000C9499000C949900E8
S11300300C9499000C9499000C9499000C949900D8
S11300400C9499000C9499000C9499000C949900C8
S11300500C9499000C9499000C9499000C949900B8
S11300600C9499000C9499000C9499000C949900A8
S11300700C9499000C9499000C9499000C94990098
S11300800C9499000C9499000C9499000C94990088
S11300900C9499000C9499000C9499000C94990078
S11300A00C9499000C9499000C9499000C94990068
S11300B00C9499000C9499000C9499000C94990058
S11300C00C9499000C9499000C9499000C94990048
S11300D00C9499000C9499000C9499000C94990038
S11300E00C9499000C9499000C9499000C94990028
S11300F00C94990011241FBECFEFCDBFDFE7DEBF04
S113010010E4A0E0B0E4E8E4F3E000E00BBF02C0D8
S113011007900D92A831B107D9F720E4A8E1B0E423
S113012001C01D92AA31B207E1F70E94F4000C94B9
S1130130A2010C940000E4E8F4E0808188608083EC
S11301401092194033C0F0E0EC5EFF4B8081809345
S1130150440482E08A95F1F7809108048F7190E05D
S1130160959587959595879595958795282F2370CF
S1130170909128049073892F90E095958795959593
S113018087958C70822B90911940E0911840F0E093
S1130190EE0FFF1FEE0FFF1FE050F04CE90FF11DB3
S11301A02081821307C09F5F90931940E09119400A
S11301B0E43048F2E4E8F4E0808184608083809154
S11301C01940843021F480818E7F808305C0E4E867
S11301D0F4E080818D7F808310924404E4E8F4E0AD
S11301E08081877F80830895E1E0F4E080818770D7
S11301F08083E1E2F4E080818F7C8083E1E4F4E0B9
S113020080818FEF8083E1E6F4E0808187608083E2
S1130210E1E8F4E080818F608083E1EAF4E08081AA
S1130220877F8083E7E1F4E0808188608083E6E172
S1130230F4E0808188608083E5E1F4E08081886077
S11302408083E4E1F4E0808188608083E3E1F4E08A
S1130250808188608083E3EBF4E080818860808320
S1130260A4E6B4E088EF8C93E4E8F4E08081887F2E
S113027080832FEF84E39CE0215080409040E1F79D
S113028000C000008C9187608C938081876080839C
S11302908091A80483FDFCCFE4E6F4E087E080834A
S11302A08BEF80938404809108048F6190E08095A3
S11302B09095959587959595879595958795959519
S11302C08795959587958770809318409081809540
S11302D08923808380911840843089F50F2EF4E1BE
S11302E0CF2EF4E0DF2EF02DF6018081886080832C
S11302F00F2EF3E1EF2EF4E0FF2EF02DF7018081B5
S11303008860808305E314E0F8018081886080833D
S1130310C4E3D4E08881886088830E949B00F6014E
S11303208081877F8083F7018081877F8083F801C4
S11303308081877F80838881877F8883A9CF0E947B
S10B03409B00A6CFF894FFCF47
S11303480F0F0F000000000F000F0F0F000F0F001A
S10B03580F0F0F000055AAFF6E
S9030000FC
