:100000000C947A000C9484000C9484000C9484006A
:100010000C9484000C9484000C9484000C94840050
:100020000C9484000C9484000C9484000C94840040
:100030000C9484000C9484000C9484000C94840030
:100040000C9484000C9484000C9484000C94840020
:100050000C9484000C9484000C9484000C94840010
:100060000C9484000C9484000C9484000C94840000
:100070000C9484000C9484000C9484000C948400F0
:100080000C9484000C9484000C9484000C948400E0
:100090000C9484000C9484000C9484000C948400D0
:1000A0000C9484000C9484000C9484000C948400C0
:1000B0000C9484000C9484000C9484000C948400B0
:1000C0000C9484000C9484000C9484000C948400A0
:1000D0000C9484000C9484000C9484000C94840090
:1000E0000C9484000C9484000C9484000C94840080
:1000F0000C94840011241FBECFEFCDBFDFE7DEBF1D
:100100000E9486000C94DE000C940000E0E0F4E015
:1001100080818F718083E0E6F4E080818F6080834E
:10012000C8E0D4E0E881EF67A881AF6BF881FF6D8C
:100130006F2F70E09B01220F331F8A2F90E0A901DF
:10014000482B592B440F551F440F452F441F550B67
:10015000BE2FB42BBE6F60957095660F771FAC01F4
:10016000462B572B440F551F042E452F000C441FC0
:10017000550B000C441F551F4E2B4D6F80959095CD
:10018000282B392B35952795359527953595279526
:10019000359527952E2B2B6F862B972B959587952D
:1001A00095958795959587958E2B982F976F8B2F83
:1001B00084238223892380936404BACFF894FFCFE9
:00000001FF
