:100000000C947A000C948C000C948C000C948C0052
:100010000C948C000C948C000C948C000C948C0030
:100020000C948C000C948C000C948C000C948C0020
:100030000C948C000C948C000C948C000C948C0010
:100040000C948C000C948C000C948C000C948C0000
:100050000C948C000C948C000C948C000C948C00F0
:100060000C948C000C948C000C948C000C948C00E0
:100070000C948C000C948C000C948C000C948C00D0
:100080000C948C000C948C000C948C000C948C00C0
:100090000C948C000C948C000C948C000C948C00B0
:1000A0000C948C000C948C000C948C000C948C00A0
:1000B0000C948C000C948C000C948C000C948C0090
:1000C0000C948C000C948C000C948C000C948C0080
:1000D0000C948C000C948C000C948C000C948C0070
:1000E0000C948C000C948C000C948C000C948C0060
:1000F0000C948C0011241FBECFEFCDBFDFE7DEBF15
:1001000020E4A0E0B0E401C01D92A130B207E1F705
:100110000E94C1000C94C6000C94000082E0809301
:10012000220421E080E02AC0E8E2F4E0908198E82F
:100130009A95F1F7908191FD21C0ECECF0E03197B8
:10014000F1F700C0000090E016C020912804227052
:1001500030E0002436952795079436952795079427
:10016000322F202D8695822BECECF0E03197F1F7C1
:1001700000C000009F5F983040F320E02130A1F2E2
:1001800008950E948E0080930040FBCFF894FFCF2B
:00000001FF
