S0160000696E746572727570745F6563686F2E7372656323
S11300000C947A000C948C000C948C000C948C004E
S11300100C948C000C948C000C948C000C948C002C
S11300200C948C000C948C000C948C000C948C001C
S11300300C948C000C948C000C948C000C948C000C
S11300400C948C000C948C000C948C000C948C00FC
S11300500C948C000C948C000C948C000C948C00EC
S11300600C948C000C948C000C948C000C948C00DC
S11300700C948C000C948C000C948C000C948C00CC
S11300800C948C000C948C000C948C000C948C00BC
S11300900C948C000C948C000C948C000C948C00AC
S11300A00C948C000C948C000C948C000C948C009C
S11300B00C948C000C94DC000C948C000C948C003C
S11300C00C948C000C948C000C948C000C948C007C
S11300D00C948C000C948C000C948C000C948C006C
S11300E00C948C000C948C000C948C000C948C005C
S11300F00C948C0011241FBECFEFCDBFDFE7DEBF11
S113010020E4A0E0B0E401C01D92A130B207E1F701
S11301100E948E000C940C010C940000E0E2F4E0C8
S113012082E0828381898B60818B78940000FECF8A
S113013024E42A95F1F78091280481FD1FC088E802
S11301408A95F1F790E080E013C020912804227092
S113015030E0002436952795079436952795079423
S1130160322F202D8695822B28E82A95F1F79F5F60
S1130170983058F394E49A95F1F7089580E008953F
S113018091E0909321049093240428E82A95F1F7B0
S113019090E009C0282F217020932404869528E834
S11301A02A95F1F79F5F9830A8F381E080932404A7
S11301B088E88A95F1F708951F920F920FB60F926F
S11301C011240BB60F922F933F934F935F936F932A
S11301D07F938F939F93AF93BF93EF93FF930E946B
S11301E098008093004080520E94C00082E0809377
S11301F02904FF91EF91BF91AF919F918F917F91CE
S11302006F915F914F913F912F910F900BBE0F9083
S10F02100FBE0F901F901895F894FFCFBC
S9030000FC
