:100000000C947A000C948C000C948C000C948C0052
:100010000C948C000C948C000C948C000C948C0030
:100020000C948C000C948C000C948C000C948C0020
:100030000C948C000C948C000C948C000C948C0010
:100040000C948C000C948C000C948C000C948C0000
:100050000C948C000C948C000C948C000C948C00F0
:100060000C948C000C948C000C948C000C948C00E0
:100070000C948C000C948C000C948C000C948C00D0
:100080000C948C000C948C000C948C000C948C00C0
:100090000C948C000C948C000C948C000C948C00B0
:1000A0000C948C000C948C000C948C000C948C00A0
:1000B0000C948C000C94D2000C948C000C948C004A
:1000C0000C948C000C948C000C948C000C948C0080
:1000D0000C948C000C948C000C948C000C948C0070
:1000E0000C948C000C948C000C948C000C948C0060
:1000F0000C948C0011241FBECFEFCDBFDFE7DEBF15
:1001000020E4A0E0B0E401C01D92A130B207E1F705
:100110000E948E000C9404010C940000E0E2F4E0D4
:1001200082E0828381898360818B78940000FECF96
:1001300080E28A95F1F78091280481FD0DC090E45A
:100140009A95F1F780E006C09091280490E49A9582
:10015000F1F78F5F8830C0F380E0089591E09093CD
:1001600021049093240460E46A95F1F740E011C003
:10017000982F916090932404282F30E0B90102C099
:10018000759567958A95E2F7CB0170E47A95F1F75A
:100190004F5F483068F381E08093240480E48A95BF
:1001A000F1F708951F920F920FB60F9211240BB61C
:1001B0000F922F933F934F935F936F937F938F9300
:1001C0009F93AF93BF93EF93FF930E949800809308
:1001D000004080520E94AE00E0E2F4E0818582603F
:1001E0008187FF91EF91BF91AF919F918F917F9107
:1001F0006F915F914F913F912F910F900BBE0F9098
:0C0200000FBE0F901F901895F894FFCFD0
:00000001FF
