:100000000C947A000C9484000C9484000C9484006A
:100010000C9484000C9484000C9484000C94840050
:100020000C9484000C9484000C9484000C94840040
:100030000C9484000C9484000C9484000C94840030
:100040000C9484000C9484000C9484000C94840020
:100050000C9484000C9484000C9484000C94840010
:100060000C9484000C9484000C9484000C94840000
:100070000C9484000C9484000C9484000C948400F0
:100080000C9484000C9484000C9484000C948400E0
:100090000C9484000C9484000C9484000C948400D0
:1000A0000C9484000C9484000C9484000C948400C0
:1000B0000C9484000C9484000C9484000C948400B0
:1000C0000C9484000C9484000C9484000C948400A0
:1000D0000C9484000C9484000C9484000C94840090
:1000E0000C9484000C9484000C9484000C94840080
:1000F0000C94840011241FBECFEFCDBFDFE7DEBF1D
:100100000E9486000C94CA000C940000E0E0F4E029
:1001100081818F748183E0E4F4E081818068818350
:1001200088ED84BFE0E6F0E090E8908384BF118220
:1001300084BF91E0928384BF138284BF8DE880875F
:10014000E0E6F4E0848180588483809108048F6421
:1001500090E080959095082E892F000C881F990BB0
:10016000000C881F991F8370813049F018F082308D
:1001700051F0E6CF81E48A95F1F70000E1CF94E8F1
:100180009A95F1F7DDCF86EC90E00197F1F700C08A
:080190000000D6CFF894FFCF68
:00000001FF
