S02600006173796E6368726F6E6F75735F73775F726561645F696E746572727570742E7372656342
S11300000C947A000C9484000C9484000C94840066
S11300100C9484000C9484000C9484000C9484004C
S11300200C9484000C9484000C9484000C9484003C
S11300300C9484000C9484000C9484000C9484002C
S11300400C9484000C9484000C9484000C9484001C
S11300500C9484000C9484000C9484000C9484000C
S11300600C9484000C9484000C9484000C948400FC
S11300700C9484000C9484000C9484000C948400EC
S11300800C9484000C9484000C9484000C948400DC
S11300900C9484000C9484000C9484000C948400CC
S11300A00C9484000C9484000C9484000C948400BC
S11300B00C9484000C9484000C9484000C948400AC
S11300C00C9484000C9484000C9484000C9484009C
S11300D00C9484000C9484000C9484000C9484008C
S11300E00C9484000C9484000C9484000C9484007C
S11300F00C94840011241FBECFEFCDBFDFE7DEBF19
S11301000E9486000C9488000C9400000000FECF2E
S1070110F894FFCF8D
S9030000FC
