S01B00004D435032335331375F77726974655F746573742E7372656360
S11300000C947A000C9484000C9484000C94840066
S11300100C9484000C9484000C9484000C9484004C
S11300200C9484000C9484000C9484000C9484003C
S11300300C9484000C9484000C9484000C9484002C
S11300400C9484000C9484000C9484000C9484001C
S11300500C9484000C9484000C9484000C9484000C
S11300600C9484000C9484000C9484000C948400FC
S11300700C9484000C9484000C9484000C948400EC
S11300800C9484000C9484000C9484000C948400DC
S11300900C9484000C9484000C9484000C948400CC
S11300A00C9484000C9484000C9484000C948400BC
S11300B00C9484000C9484000C9484000C948400AC
S11300C00C9484000C9484000C9484000C9484009C
S11300D00C9484000C9484000C9484000C9484008C
S11300E00C9484000C9484000C9484000C9484007C
S11300F00C94840011241FBECFEFCDBFDFE7DEBF19
S11301000E94B8000C94DE000C940000E0EAF4E0D5
S113011094819B7F9483809344098091430988232D
S1130120E4F760934409809143098823E4F74093FA
S11301304409809143098823E4F7E0EAF4E08481E8
S113014084608483089540E86AE080E40E94860025
S113015040E060E080E40E9486004FEF60E180E4CC
S11301600E9486004FEF66E080E40E9486000895B6
S1130170E0E0F4E080E5818380E2828384E08093A0
S1130180A104E0E4F9E091E2908381830E94A3005A
S1130190CFEFCF3F11F0CF5F01C0C0E04C2F4095AF
S11301A06AE180E40E9486002FEF88E09DE32150FD
S11301B080409040E1F700C00000EBCFF894FFCFFF
S9030000FC
