:100000000C947A000C9484000C9484000C9484006A
:100010000C9484000C9484000C9484000C94840050
:100020000C9484000C9484000C9484000C94840040
:100030000C9484000C9484000C9484000C94840030
:100040000C9484000C9484000C9484000C94840020
:100050000C9484000C9484000C9484000C94840010
:100060000C9484000C9484000C9484000C94840000
:100070000C9484000C9484000C9484000C948400F0
:100080000C9484000C9484000C9484000C948400E0
:100090000C9484000C9484000C9484000C948400D0
:1000A0000C9484000C9484000C9484000C948400C0
:1000B0000C9484000C9484000C9484000C948400B0
:1000C0000C9484000C9484000C9484000C948400A0
:1000D0000C9484000C9484000C9484000C94840090
:1000E0000C9484000C9484000C9484000C94840080
:1000F0000C94840011241FBECFEFCDBFDFE7DEBF1D
:100100000E9486000C94BC000C9400000E94A90080
:1001100087EE93E00197F1F700C00000F7CFE0E42D
:10012000F4E0948192609483806880934409809184
:1001300043098823E4F760934409E0E4F4E0848110
:100140008D7F8483089560E00E948F008091440930
:100150000895CF93DF93C0E00AC0D0E2DC0F65E5DD
:100160008D2F0E948F008D2F0E94A300CF5FCA3079
:0C017000A0F3DF91CF910895F894FFCF29
:00000001FF
