:100000000C947A000C9484000C9484000C9484006A
:100010000C9484000C9484000C9484000C94840050
:100020000C9484000C9484000C9484000C94840040
:100030000C9484000C9484000C9484000C94840030
:100040000C9484000C9484000C9484000C94840020
:100050000C9484000C9484000C9484000C94840010
:100060000C9484000C9484000C9484000C94840000
:100070000C9484000C9484000C9484000C948400F0
:100080000C9484000C9484000C9484000C948400E0
:100090000C9484000C9484000C9484000C948400D0
:1000A0000C9484000C9484000C9484000C948400C0
:1000B0000C9484000C9484000C9484000C948400B0
:1000C0000C9484000C9484000C9484000C948400A0
:1000D0000C9484000C9484000C9484000C94840090
:1000E0000C9484000C9484000C9484000C94840080
:1000F0000C94840011241FBECFEFCDBFDFE7DEBF1D
:100100000E94C0000C94E0000C940000E0EAF4E0CF
:1001100094819B7F94838093440980914309882331
:10012000E4F760934409809143098823E4F74093FE
:100130004409809143098823E4F7E0EAF4E08481EC
:1001400084608483089540E86AE080E40E94860029
:100150004FEF60E080E40E94860040E060E180E4D0
:100160000E9486004FEF66E080E40E9486000895BA
:1001700040E0682F81E40E94860080914409089540
:10018000CF93DF931F92CDB7DEB7E0E0F4E080EDD0
:10019000818380E2828384E08093A10481E2809362
:1001A000400984818F7784830E94A30089E00E94A4
:1001B000B800898349816AE180E40E948600F6CF15
:0401C000F894FFCFE1
:00000001FF
